:020000040000FA
:10000000001400209D0C0000AF0C0000B10C00009B
:1000100000000000000000000000000000000000E0
:10002000000000000000000000000000B30C000011
:100030000000000000000000B50C0000B70C00003C
:10004000B90C000081370000B90C0000B90C0000A9
:10005000B90C0000000000007D210000B90C000078
:10006000B90C00003D320000C9390000B90C000095
:10007000B90C0000B90C0000B90C0000B90C00006C
:10008000B90C0000F50C0000AD0F0000B90C000029
:1000900041390000B90C0000B90C00001D0D000032
:1000A000B90C0000B90C00000000000000000000C6
:1000B0000000000000000000000000000000000040
:1000C0000348854603F0B2FA00480047290B0000B8
:1000D00000140020401E00BF00BF00BF00BF00BFD3
:1000E00000BF00BF00BF00BF00BF00BF00BFF1D115
:1000F00070470000401E00BF00BF00BF00BF00BF30
:1001000000BF00BF00BF00BF00BF00BF00BFF1D1F4
:1001100070470000401E00BF00BF00BF00BF00BF0F
:1001200000BF00BF00BF00BF00BF00BF00BFF1D1D4
:100130007047000070470120F849C863F849C8605B
:100140000320C00348600846806801210843F44941
:1001500088600120F34908607047F348F34908605C
:100160007047002003F010F805E000F061FE02F097
:10017000B1F8FFF7F2FFF8E710B50124002004F012
:100180000BFC0440012004F0B9FB0440002004F003
:10019000C1FA044000F098FD4B2004F0CDFB044070
:1001A000FF20F93004F0E8FB04401E2004F0D4FBEB
:1001B0000440002C01D1FFF7D4FF02F02BFB04F028
:1001C000EDF9002801D1FFF7CCFF10BD10B500BF3D
:1001D00004F030FB0028FBD101208107C860486093
:1001E00010BDD348D349C8600020D34948600620D9
:1001F00001218140D14A116000BF70470020D049E1
:1002000008600120CF4948600020CF49086070474E
:1002100010B504F0EDFB10BD10B5CC480068002807
:1002200001D000F04BFE10BD00B591B0C84802905F
:10023000C8490391C8490491C8490591C849069124
:10024000052168460171002108A8017005200F9062
:100250000220109001A802F010F811B000BD10B5F6
:10026000052002F09CF802F080F8BE4908700022D8
:1002700001218903BC48006801F028FD10BD3EB58E
:100280000125FF216846017002214170B74903C969
:1002900002910190B6480078002807D1B54800784F
:1002A000002803D102F0F0FBB2490870B148007891
:1002B000002804D10A2002F067FF00203EBDAC48B0
:1002C0000078002828D1AB480078002824D021E00D
:1002D00002F004F8FFF741FF02F0D2FC0446002CC4
:1002E00016D0012C0CD0022C02D0032C0FD100E030
:1002F00000BF00209E4908709E490870002508E054
:1003000001209B4908709B490870002501E000BF4F
:1003100000BF00BF002DDBD195480078002803D036
:1003200094480078002804D10A2002F02DFF002014
:10033000C4E70C21684602F0A6FD002804D0032083
:1003400002F022FF0120B9E70A2002F01DFF002081
:10035000B4E770B504460D46062D19D181480078E2
:10036000A07002F0D3FDA080E9B2204602F08BFD20
:1003700000280BD0FFF7F1FE2078042803D10320DA
:1003800002F002FF04E002F0D8FE01E0FFF7E5FE14
:1003900070BD70B504460D4677480078002812D02D
:1003A000012804D002283DD00B2875D16AE02078BE
:1003B000002807D170490870002270497048006811
:1003C00001F084FC68E02078012806D16A490870B1
:1003D0006B48006801F0ABFC23E02078092820D1AD
:1003E00005206849087006216648FFF7B2FF022021
:1003F000614908706448006801F0B7FC002803D028
:100400006148006801F093FC002260496048006880
:1004100001F05CFC0022052109045B48006801F042
:1004200055FC39E02078012816D153490870564808
:10043000006801F09AFC002803D05348006801F0DE
:1004400076FC5348006801F090FC002819D0504811
:10045000006801F06CFC14E02078092811D102F04A
:10046000E3F900204249087042490870FFF707FF8E
:10047000002803D101E000F0DBFCFCE70B203E4943
:10048000087009E02078012805D13B4908704048F0
:10049000006801F04CFC00BF00BF70BD70B50446A1
:1004A0000D4601F01BFF01203A4908703A4A01212C
:1004B000384800F051FC70BD70B504460D4601F09F
:1004C0000DFF002033490870334A0121314800F004
:1004D00043FC70BD70B504460D46304800780300FB
:1004E00003F0A8FA081105BF9697AFBF6EBF20783A
:1004F000002807D1294908700022204928480068AF
:1005000001F0E4FBADE0207801284BD124480068DD
:1005100001F00DFC01202149087050E0C00F01409E
:1005200000050140000001403546526E00060140C2
:1005300000020020000500500063004080E200E05F
:10054000007100400070004000750040002501402F
:100550001902000011020000FD010000E30100008B
:10056000CD010000370000201800002060000010BE
:10057000200000202100002034000020660600003A
:1005800008000020380000201C0000206626000023
:1005900010000020360000209303000035000020EA
:1005A0000C0000202078092809D100220121C9036C
:1005B000FD48006801F08AFB0720FC49087050E004
:1005C000207801280DD1F9490870F748006801F03A
:1005D000AEFB0620F64908700621F548FFF7B9FE84
:1005E00015E02078092812D10420F0490870002273
:1005F0008103ED48006801F069FBEE48006801F0F6
:1006000096FB0022EC49EB48006801F05FFB28E014
:1006100027E02078012806D1E4490870E248006804
:1006200001F085FB0CE02078092809D10420E0497D
:1006300008700621DE48FFF78CFE0520DB490870B4
:100640000FE02078012804D0042000F0B7FA012838
:1006500006D10120D5490870D648006801F067FB33
:1006600000BF00BF70BD70B504460D4601F036FEF8
:100670000120D2490870D24A0121D04800F06CFB19
:1006800070BD70B504460D4601F028FE0020CB4930
:100690000870CB4A0121C94800F05EFB70BD70B5FF
:1006A00004460D4601F01AFEC6480068002801D134
:1006B00000F0FEFB70BD10B500BFC349062001F07D
:1006C00025FC044600BF2346002B07D000BFBFA275
:1006D000012149021846FFF72DFD00BF00BF00BFF2
:1006E000BD4B0A221146BD4801F049FCBC4B10220B
:1006F0000021BC4801F043FCBB4B00221021BB4849
:1007000001F03DFCBA4B01220021BA4801F037FC50
:10071000B94B00220121B94801F031FCAF48007803
:1007200001F072FCAF48007801F06EFCAF48007831
:1007300001F06AFCAF48007801F066FCAF48007831
:1007400001F062FC10BD10B5044601F0C7FD012C9C
:1007500032D100F0DDFB40B2A9490870A948007809
:10076000002806D1A748007801214840A549087013
:1007700010BDA448007801214840A2490870A04853
:1007800000214156002908DD9F480068401C9E4911
:10079000086000209D4908600EE0994800214156FC
:1007A000002908DA00209849086098480068401C31
:1007B0009649086000E0DBE700BFD9E700B587B0E5
:1007C0009348009000216846017102214171032085
:1007D000029001200390801E04900121684601765A
:1007E00000F04EFB022000F070FB00F061FB07B050
:1007F00000BD10B5012040020521090707221202A1
:100800008918C86003200004052109078918C860F9
:1008100001204002052109078918486003200004CF
:10082000052109078918486000BF00BF79480521E4
:1008300009078918086100BF00BF00BF00BF7649E3
:10084000086000BF00BF7548C069002816D10420A9
:1008500000F0B4F9002802D15449087002E00120E8
:1008600052490870002000F0A9F9002802D16C4913
:10087000087030E001206A4908702CE06748C069C0
:10088000552828D1AA206549C861002000F096F9B2
:1008900000280AD162490870092048490870614A55
:1008A0000121464800F058FA02E001205C49087036
:1008B000042000F083F900280AD13C49087009207F
:1008C0003E4908703E4A01213C4800F045FA02E0EA
:1008D00001203649087010BD534805210907072239
:1008E000120289184867052109078918486270476C
:1008F00070B504460D4601F0F1FCFFF72EFC70BD0B
:1009000010B50446494A0421002000F025FA10BD24
:1009100010B50446092029490870424A0121274898
:1009200000F01AFA10BD10B5044601F01EFD404952
:10093000087010BD10B5044672B6334800683D49D2
:100940000860324800683C49086000202E49086071
:100950002E49086062B637480068002803D136483F
:100960000068002878D03348006800280ED00A209C
:100970000F4908702F4800680F2801D90F2001E0A7
:100980002C48006840B20A4948705CE02A48006878
:10099000002858D00B2006490870274800680F2807
:1009A0004CD90F204CE057E00C000020350000200F
:1009B00038000020100000206626000036000020CD
:1009C000D5040000002501403C0300202E2E5C6D64
:1009D00061696E2E630000009F0600000000002089
:1009E00083060000010000206706000003000020CD
:1009F000B9040000020000209D0400000400002053
:100A000023000020220000202400002028000020D5
:100A1000470700000C0003000007005000050040DD
:100A2000340000209303000001020000F1080000E0
:100A3000370000202C000020300000206F480068A4
:100A400040B26F4948706F480078012804D16E4A5F
:100A500006216B4800F080F910BD10B5044609204E
:100A60006A4908706A4A0121684800F075F910BDAA
:100A700038B500BF6748684B092208210090002064
:100A800001F062F8044600BF2346002B06D000BFE9
:100A9000624A63491846FFF74DFB00BF00BF00BF25
:100AA000604A0021604801F0B4F8604A00216048C3
:100AB00001F0AFF85F4A01215F4801F0AAF85F4AF0
:100AC00001215F4801F0A5F8564A00215D4801F078
:100AD000A0F85D4A01215D4801F09BF838BD022075
:100AE0005B49886100205B4948600120810788607C
:100AF00000BF584840680028FBD000205549486096
:100B0000704700200DE001218140534A114207D077
:100B100002210522120707231B02D2188300D1509D
:100B2000401C1F28EFD37047FFF7EBFFFFF7D7FFFD
:100B3000FFF7D2FE00BF494A2021082000F0F2F85A
:100B4000044600BF2346002B06D000BF334AD42101
:100B50001846FFF7EFFA00BF00BF00BFFFF788FF9E
:100B600002F0B0FAFFF7B8FEFFF743FEFFF726FEEC
:100B7000FFF7A1FDFFF773FBFFF756FBFFF7FCFA4A
:100B8000374838490860FFF7D6FAFFF7E6FA00223F
:100B900035492948006801F099F803E000F048F968
:100BA00001F098FBFAE77CB504460D4600940195E8
:100BB0002E4A0821684600F0CFF87CBD01462C483B
:100BC0000069C840C007C00F704770B504460D46A5
:100BD000264600BF082D01D1012000E00020034679
:100BE000002B06D100BF23A2FF210F31FFF7A2FA8D
:100BF00000BF00BF31687068884770BD30000020BA
:100C0000380000203500002053030000360000208B
:100C1000D5040000A70B0000B4030020CC0900009D
:100C2000B202000011090000080000205B0A000069
:100C30000C000020350900001400002027090000E6
:100C4000180000201C0000200109000010000020F6
:100C50000005004000010040A49DFFDF2C010020A2
:100C6000FFFF00000004004066060000CB0B000000
:100C7000000500502E2E5C2E2E5C496E636C756450
:100C8000655C6170705F636F6D6D6F6E5C617070DD
:100C90005F74696D65722E68000000000748026885
:100CA0000F210A4302600648804706480047FEE7D6
:100CB000FEE7FEE7FEE7FEE7FEE700002405004052
:100CC000C90C0000C10000000648008D0006000F9E
:100CD000012805D1044805494860C81304498861C2
:100CE00070470000C00F00F0DFFF07C000050040A4
:100CF000006C004010B5002007490860002106483C
:100D000041608160C160002003494039086048604B
:100D100000F0BBFC10BD00004011014010B500F018
:100D200091FE10BD30B50346481CC004040C90076A
:100D3000800F01D0072030BD4A48026010194A4D8B
:100D400028600020494D2870494D2870494803808B
:100D5000494801800020EEE7F7B507460C464548B4
:100D60000088844237DC454D72B64048007800F078
:100D70006EF83F490978884206D03C4805780078EB
:100D800000F065F83949087062B63C48854220D0C9
:100D9000E900344A029812685050002F11D0002CFC
:100DA0000FDD3449098869432F4A126888182246A2
:100DB000394602F0C5FAE8002A49096840188480DB
:100DC00005E00021E800274A12688018818000268B
:100DD00000E0042600E009263046FEBDF8B50546D1
:100DE0000E461746052000902048007820490978D3
:100DF00088421BD01E480478007800F028F81C496F
:100E000008701C480088604317490968401828602A
:100E1000E00014490968401880883080E0001149DA
:100E20000968085838600020009000BF0098F8BD9D
:100E30000EB504E068468188009A029890476A4699
:100E400001A902A8FFF7CAFF0028F3D00EBD014692
:100E500009480088814201DA481C00E00020C0B245
:100E60007047000064000020680000206D00002032
:100E70006C0000206E00002070000020FFFF0000CA
:100E80000146424A08681060087E414A90624879EB
:100E90009060087910613E4A4032486910603C4ACF
:100EA00088681062C86850620869D0610020704785
:100EB00001203749086037490860704701203549EB
:100EC0004860002032490860704710B504462F483A
:100ED0000068002801D1072010BD0121122000F078
:100EE0001DF81220012181402B4A116000BF00BF74
:100EF00001218140294A116000BF6407640F28481E
:100F000044600020274908604860886000BFE3E72C
:100F10000120204988601E488069704710B500286C
:100F200019DA214A03071B0F083B9B089B00D25884
:100F30008307DC0EFF23A3409A438B071B0E840715
:100F4000E40EA3401A43184B0407240F083CA408DE
:100F5000A4001A5118E0114A03231B02D218830877
:100F60009B00D2588307DC0EFF23A3409A438B07D4
:100F70001B0E8407E40EA3401A43084B03242402EB
:100F80001B198408A4001A5110BD00007400002031
:100F9000002501400020014080E200E000E100E087
:100FA00000230140002101401CED00E010B50F4876
:100FB0004068002804D000200C494860012410E05B
:100FC0000A480068002804D000200849086000246E
:100FD00007E006488068002803D0002003498860A5
:100FE0000224204602490968884710BD00210140BB
:100FF0007400002010B502F087FF10BD704700009C
:09100000F33BAF0A480078002818
:01107E00F081
:1014000010B5002819DAF74A03071B0F083B9B08A1
:101410009B00D2588307DC0EFF23A3409A438B071F
:101420001B0E8407E40EA3401A43EE4B0407240F5F
:10143000083CA408A4001A5118E0EB4A03231B023D
:10144000D21883089B00D2588307DC0EFF23A340E9
:101450009A438B071B0E8407E40EA3401A43E24B0A
:10146000032424021B198408A4001A5110BD10B5CE
:101470000446DE48846003211120FFF7C1FF10BD40
:1014800010B501200004DA494860D9494039486064
:10149000112000F086FC112000F075FC0120D549D8
:1014A00008602F20FEF716FE10BD10B51120012197
:1014B0008140CD4A8032116000BF01200004CC4938
:1014C0008860CB49403988600120CA4948602F2094
:1014D000FEF700FE10BDF0B5024624205043C64B77
:1014E0001B68C118C5480068401C02D1C34802608F
:1014F00057E0C2484B68006824246043BE4C24680F
:1015000000194068834217D8BC4800682423584318
:10151000B94B1B68C01840684B68C31AB7480068CD
:1015200024246043B44C246800194360B348006825
:101530000862B248026034E04B68B04D2C682868FD
:101540000DE024254543AC4E3668AD196D685B1B34
:10155000044624254543A84E3668AD19286A451C23
:1015600007D024254543A44E3668AD196D689D42C9
:10157000E7D3451C0CD0242545439F4E3668AD1952
:101580006D68EE1A242545439B4F3F68ED196E6048
:101590004B60086224256543974E3668AD192A6270
:1015A00000BFF0BD70B50246944C2168084609E0C2
:1015B000904200D108E00146242444438E4D2D681A
:1015C0006419206A441CF3D100BF441C00D170BDD3
:1015D000814209D1894C246824256C43864D2D68AD
:1015E0006419246A854D2C6024244443824D2D685F
:1015F00064196368242444437F4D2D686419256A67
:1016000024244C437C4E3668A419256224244C4380
:10161000794D2D686419206A441C0CD0242444435D
:10162000754D2D6864196468E51824244443724E8E
:101630003668A419656000BFC9E710B5112000F035
:10164000A9FB10BD10B5172000F0A4FB10BD70B5AC
:1016500004466B480068002813D0694AE169A06914
:1016600012689047054600BF2E46002E07D000BFE7
:1016700064A2FF2153313046FEF75CFD00BF00BF7E
:1016800002E0A169E069884770BDF8B55B48006871
:10169000401C3BD0002662480078401CC5B2022D99
:1016A00000D100255F480078854225D000F0ABFBD3
:1016B00004465D480168204600F0A8FB07464F48F5
:1016C0000068009013E02421009848434A490968C3
:1016D00044186068B84200D90CE060683F1A60683E
:1016E0008619206A00902046FFF7B1FF00BF0098DE
:1016F000401CE8D100BF00BF4948007880004B493A
:101700000E5047480570FFF79DFF00BFF8BD01462A
:1017100044480078424A127890421DD041480078EF
:101720008000424A105808603E480078401C3D4AFC
:10173000107010460078022801D1002010703A4A3B
:10174000086812688018384A106010460068000265
:10175000000A1060012070470020086000BFFAE70F
:10176000FEB52648006801903148007800906AE094
:101770000098C0002F490968441825785FE01820B8
:10178000684361680F18681CC5B2A078A84200D1F0
:1017900000253878022802D003284DD10EE02421FC
:1017A00078684843144909684618307D002804D0F9
:1017B0007868FFF7F7FE002030753EE00CE00F4937
:1017C0000968242251430C4A1268881800210175C7
:1017D0000A4A016A116000BF08480068401CEED147
:1017E0002BE000001CED00E000E100E000150140EE
:1017F0004013014000100140400000204C00002038
:10180000600000202E2E5C636F6D6D6F6E5C6170EA
:10181000705F74696D65725F6D6F642E63000000A8
:101820005D0000205C0000205000002054000020DB
:10183000450000204800002000BF00BF00BF6078C6
:10184000A8429CD100BF0098411EC9B20091002857
:101850008ED1F84801680198814201D00120FEBD77
:101860000020FCE7F0B50346002426E0F14E366880
:1018700024277E43F04F3F68F01946689E4203D903
:101880004668F61A46601CE046689B1B4668341999
:10189000002646600675E74E3568E64F066A3E60EC
:1018A0000669002E08D00E193602360A86600669CF
:1018B000C66016680662156000BFDE480068401CFE
:1018C000D4D100BFF0BDFEB50746DA4800680290EB
:1018D000DA480078019069E00198C000D8490968A9
:1018E00045185CE0781C07D03E4624207043D2495E
:1018F00009684418276A23E02978182359436A683D
:1019000050182978491C29702978AA78914201D168
:1019100000212970466824217143C74A12688C1837
:101920000178012902D1217D002900D037E08168AA
:10193000A160C168E160016921614169E16100BFA5
:10194000C049A0680968401A0002000ABE498842DE
:1019500008D2BC49A068096800F058FAE16840184C
:10196000606011E0B748A168006800F04FFA00908D
:10197000E1680098814204D9E1680098081A606023
:1019800001E00020606000BF0020A060E060012056
:101990002075801E20623046FFF79DFD00BF781C39
:1019A000A0D12878697888429CD100BF0198411E57
:1019B000C9B2019100288FD19E48016802988142E6
:1019C00001D00120FEBD0020FCE7FEB50546994888
:1019D0000068401C33D0974800682421484396494A
:1019E00009684018466800F00EFA029095480468AD
:1019F0002146029800F00AFAC01C0190681C01D12F
:101A0000FFF73EFD0198B04201D2304600E0019858
:101A100004192402240A20468C49086000BF00F003
:101A2000F2F90090029900F0F1F907462046029978
:101A300000F0ECF9874201D9FFF7FFFD01E0FFF765
:101A400034FDFEBDFEB50020C04301907D48046812
:101A5000784807686846FFF75AFE0546FFF780FE9C
:101A60000646002D05D001AA21460098FFF7FAFE90
:101A700001260198FFF727FF002800D00126002E3D
:101A800002D03846FFF7A1FFFEBD30B501464878C9
:101A9000421C8878904200D100220878904201D1FF
:101AA000002030BD4878182568434C6823184A70D8
:101AB0001846F6E7FFB581B005460E461746E90021
:101AC0005F4A12688818FFF7E0FF0446002C02D135
:101AD000042005B0F0BD01202070666000F093F98D
:101AE000A060E760049820610A986061FFF7AAFD92
:101AF0000020EEE770B505460E46E900504A126830
:101B00008818FFF7C2FF0446002C01D1042070BDE5
:101B1000022020706660FFF795FD0020F7E770B5A2
:101B20000546E900464A12688818FFF7AEFF0446EA
:101B3000002C01D1042070BD03202070001F6060C4
:101B4000FFF780FD0020F6E7FFB581B00E4617468F
:101B50001C4620468107890F01D1012100E00021A8
:101B6000002902D1072005B0F0BD002C01D10720CB
:101B7000F9E7FFF79AFC36490A980860354806707D
:101B80002D48046000250CE00021242068432A4AE7
:101B90001268115424206843274A1268801801757E
:101BA0006D1CB542F0DB2420704304190320234947
:101BB000087023480460183400250CE0E900204A2E
:101BC00012688818002101704170877044601821E4
:101BD00079430C196D1C032DF0DB0020C04315491F
:101BE000086000201C4908701C490870172000F08C
:101BF000D8F803211720FFF703FC172000F0C3F8E3
:101C00000198FFF734FC00F0FEF80E490860002050
:101C1000A9E770B503460C4607480068002801D1C3
:101C2000082070BD002A01D10720FAE7002B17D148
:101C30000720F6E74C00002040000020450000206F
:101C40004800002050000020FFFF7F0040150140A9
:101C500060000020440000205C0000205D000020A7
:101C600000211CE0242048436B4D2D68285C00288F
:101C700014D1012524204843674E3668355424206A
:101C80004843654D2D684019447024204843624DF7
:101C90002D684019826119600020C2E7491C5F4825
:101CA00000788142DEDB0420BBE710B500F081F84C
:101CB000012802D0032804D101E0002403E001241C
:101CC00001E0022400BF00BF204610BDFEB504465F
:101CD0000D46164650480068002801D10820FEBD78
:101CE0004E480078844201D2052D01D20720F6E744
:101CF0002420604348490968085C012801D0082075
:101D0000EDE72420604344490968401840780128E1
:101D100001D1284600E000200746FFF7C6FF3B46FA
:101D20002A46214600960190FFF7C4FED7E770B51A
:101D3000044639480068002801D1082070BD3748A2
:101D40000078844201D30720F8E724206043324919
:101D50000968085C012801D00820EFE7FFF7A5FF1C
:101D600005462146FFF7C6FEE8E701462B48007806
:101D7000814206D224204843274A12688018007DF9
:101D800070470020FCE7C206D20E01219140244A90
:101D900011607047C206D20E01219140214A1160A4
:101DA0007047C206D20E012191401E4A8032116056
:101DB000704710B51C484068C105C90D002920D0E6
:101DC0000A46103A50B200280DDA174B1C330407AC
:101DD000240F083CA408A4001B598407E40EE34028
:101DE0001B069B0F0BE00E4B032424021B198408D7
:101DF000A4001B598407E40EE3401B069B0FD8B2D6
:101E000010BD0420FCE70948406870470246501A9C
:101E10000002000A7047000040000020440000203B
:101E200000E100E000E200E000ED00E0001501400C
:101E3000F0B502460C46002035E0012383401946E8
:101E400023460B422ED0D5680D4205D101235B04F9
:101E5000D5680D43D56004E003231B04D5688D438A
:101E6000D56005252D0707263602AD198600AD5928
:101E700003263604B5430526360707273F02F61921
:101E80008700F55105252D0707263602AD19860076
:101E9000AD591D430526360707273F02F61987006F
:101EA000F55100BF401C2028C7D3F0BD10B5014636
:101EB000002028E014224A43A64B1B689A580123AD
:101EC00083401A421ED00522120707231B02D21894
:101ED0008300D25803231B049A4305231B070724BE
:101EE00024021B1984001A510522120707231B0222
:101EF000D2188300D25805231B07072424021B197C
:101F000084001A51401C2028D4D310BD70B505465A
:101F10000C46002C01D1072070BD20468107890F97
:101F200001D1012100E00021002901D10720F3E7C0
:101F300088480460884805700020884908708849EE
:101F400008608548007814225043014681480068A3
:101F500001F00FFA0020C043824988600620012169
:101F60008140814A116000BF012100F0BCF80620C9
:101F7000012181407D4A116000BF0020CCE7F8B507
:101F800004460D4616461F4672480068002801D1D7
:101F90000820F8BD002F01D10720FAE76F4800782C
:101FA0006D490978884201DB0420F2E72846304376
:101FB0006A49097814225143664A126850506748AA
:101FC0000078142148436349096840184560634814
:101FD0000078142148435F490968401886605F48CB
:101FE0000078142148435B490968401807615B4841
:101FF0000078207059480078401C584908702078B3
:10200000FFF754FF0020C4E7F0B5024651480068CE
:10201000002801D10820F0BD50480078824201DB41
:102020000720F8E70020524BD863524804694C4817
:102030000068002802D158064A4B586001209040A1
:10204000474B1B681843464B18600023142050432D
:10205000404D2D684019C360002140E001238B40B2
:102060001846142353433B4D2D68EB58034235D09B
:102070002546054202D003231B040EE001235B0426
:1020800014255543334E3668AD19ED6805431426C3
:102090005643304F3F68F619F56005252D07072692
:1020A0003602AD198E00AD5903263604B543052618
:1020B000360707273F02F6198F00F55105252D0732
:1020C00007263602AD198E00AD591D430526360789
:1020D00007273F02F6198F00F55100BF491C202940
:1020E000BCD3002097E710B5002819DA224A03076D
:1020F0001B0F083B9B089B00D2588307DC0EFF2375
:10210000A3409A438B071B0E8407E40EA3401A4397
:10211000194B0407240F083CA408A4001A5118E026
:10212000124A03231B02D21883089B00D25883074C
:10213000DC0EFF23A3409A438B071B0E8407E40E9B
:10214000A3401A43094B032424021B198408A4004A
:102150001A5110BD7800002080000020810000206E
:102160007C0000200063004080E200E000E100E02D
:1021700040610040000500501CED00E0FEB51A482B
:10218000066900201949C863002527E01420684328
:102190001749096844180120A840164909680842EF
:1021A0001AD0E068C04370402168084007463946AD
:1021B0002046FFF73DFEA068B043384000906068BD
:1021C00030403840019000990198084303D02269BB
:1021D00000990198904700BF681CC5B20648007876
:1021E0008542D3DBFEBD0000000500504061004089
:1021F000780000207C0000208100002010B572B61D
:10220000384839490860002404E0A200374988585A
:102210008047641C3548001F0078A042F5DC55203B
:102220003349C8610120086062B610BD10B50024B2
:1022300004E0A2002F4988588047641C2D48001FE5
:102240000078A042F5DC10BD10B504462A480068AD
:10225000401C2949086008460068284909688842E6
:1022600002D1FFF7E3FF07E023480068244909682B
:10227000884201D3FFF7C2FF10BD70B50446002CA1
:1022800001D1072070BD00201B4908601C49A06BCC
:1022900008601A49E06B08601C22A1181548001F4D
:1022A00001F04EF81C2221461048001F01F048F8AA
:1022B000144A01211448FFF7ACFC0546002D01D05B
:1022C0002846DFE70022012189030F480068FFF755
:1022D000FDFCD7E720BF40BF20BF70470020064964
:1022E000086070473546526E00060140FC0700202A
:1022F00000050040E0070020840000208C00002042
:10230000880000204922000090000020F8B5044613
:102310000026204601F019F98921C905009001F035
:10232000D6F80746264901F095F80546254928467E
:1023300001F030F901D8642615E02349284601F060
:102340001FF901D801260EE020480168284601F057
:1023500081F800901E480168009801F073F8074664
:1023600001F0FAF8C6B23046F8BD70B500F04BF88F
:1023700005462846FFF7CAFF044616480078164966
:102380000978401AA04206DC124800781249097800
:102390004018A04201DA0F480470204670BD1CB5F9
:1023A00004460D4804700221684601700021417006
:1023B00081708021C1700021017100F00FF81CBDF7
:1023C0000000614500C041450000614498000020C4
:1023D0009C00002094000020950000200146012070
:1023E000124A106008784A78920010438A785201A5
:1023F0001043CA78120210430A79120410430B4AA0
:102400005060002070470020094A10600120094AEE
:10241000106000BF064800680028FBD003488068B1
:1024200001B20120034A506088B270470075004035
:102430000071004000700040F7B582B005461646B6
:1024400031464E2000F068FFC0B201900220287093
:102450004F21701E29540398002816D0012411E042
:102460002746E117890FC91989108900621A039953
:10247000885C019900F050FF0198604308182855C6
:10248000601CC4B2701EA042EADC012410E0295D89
:10249000601E285C081AC0B200900098052805DA72
:1024A000295D05220098101A08182855601CC4B22E
:1024B000B442ECDB05B0F0BDF0B587B004460125B1
:1024C00002F0B8F9009099480078984949780902D3
:1024D000401896498978090440189449C978090632
:1024E00040180290002C0BD0207861780902401827
:1024F000A17809044018E17809064018019002E02B
:10250000002007B0F0BD02F073FA002D06D002984B
:1025100002F0ACF9002801D0012000E000200546BF
:10252000002D07D00021084602F08AF9002801D0CA
:10253000012000E000200546002D06D0019802F0A1
:10254000A5F9002801D0012000E000200546012661
:102550000DE0002D07D03146304602F071F9002819
:1025600001D0012000E000200546701CC6B2082EF4
:10257000EFDB02F087F80746FAB2214603A8FFF71F
:102580005BFF002D07D0394603A802F08FF9002821
:1025900001D0012000E0002005460098002809D065
:1025A000002D05D001F0FAFF002801D0012000E045
:1025B000002005462846A4E770B5002408E00D7801
:1025C000167875400570401C491C521C651CECB205
:1025D0009C42F4DB70BD10B50446032254492046EA
:1025E00000F0D2FE002801D1012010BD0020FCE740
:1025F00010B5044603224E49204600F0A1FE10BD4E
:1026000010B50446052221464A4800F099FE10BD47
:1026100010B504460D222146474800F091FE10BD3A
:10262000464908707047F0B589B006460F46154612
:1026300042480078002804D0012808D002281AD186
:102640000EE010223E4905A800F07AFE15E01022A7
:102650003B4905A800F074FE05A800F032FC0CE030
:102660001022374905A800F06BFE0D22324905A85B
:1026700000F066FE01E009B0F0BD00BF00240BE0F1
:10268000052C04DA2B48005D01A9085502E0002062
:1026900001A90855601CC4B2102CF1DB00F094FCB9
:1026A00005A800F0CDFC01A901A800F09BFC2B4679
:1026B00001AA39463046FFF77FFF00BFDBE710B5C0
:1026C000024600231F4C236001231F4C236000207F
:1026D0000CE000BF1B4B1B68002BFBD01B4B9B6807
:1026E00013540023174C2360431CD8B28842F0DBFC
:1026F0000123154C636010BD80F31088704738B516
:1027000004460120FFF7F8FF06E0202000906A460B
:102710000F49204601F052FF204601F0BDFF00287E
:10272000F3DC0020FFF7E8FF38BD0000686100001F
:102730006C610000A100002034080020A0000020EF
:102740006F61000000D1004000D0004000D5004083
:102750001408002010B5044605222146FE4800F06A
:10276000EFFD10BD70B505460C46E00020180122B3
:10277000120381180922284600F0E2FD70BDF749D6
:1027800008E0832252018A18907FFF2800D003E0DE
:102790004A1E11B20029F4DA00BFFF2801D10E2031
:1027A00007E0F0220240F02A01D0001101E000070A
:1027B000000F704783204001807FFF2801D1012056
:1027C00070470020FCE79F204001C07FFF2801D018
:1027D000012070470020FCE73EB5FFF7F4FF00281A
:1027E00016D1FFF7E7FF002812D1FFF7C8FF044614
:1027F0000E2C0DDA21466846FFF7B4FF0422694625
:10280000D74800F09DFD01A8FFF7A4FF01203EBDC1
:102810000020FCE710B50020D2490870FFF7DCFF6C
:10282000CF48FFF749FE10BD10B5CF4800F07EFB42
:1028300010BD70B5044601F047FF610048430546EE
:10284000FDF758FC70BDF8B50646002520E0832052
:1028500040012818847FC148854213D02007000F0B
:102860000F2805D12046F02108403043044613E0EC
:10287000F0202040F02809D12007000F3101084343
:10288000C4B209E0E0203043044605E0681C05B20C
:10289000B248401C8542DADB00BFB4482F182146FD
:1028A000384600F05BFBF8BD70B504460D46E90004
:1028B00069180122120388180922214600F071FBD1
:1028C00070BD10B50246002307E01478521CFF2C9F
:1028D00001D0002010BD581CC3B28B42F5DB012093
:1028E000F8E7F0B585B007460025002003900026E4
:1028F000002F61D0002416E021466846FFF732FF22
:1029000004229749684600F03FFD002809D10522BE
:10291000914901A800F038FD002802D10125264682
:1029200003E0601CC4B20E2CE6DB00BF002D21D1F9
:1029300000241CE021466846FFF714FF0422884962
:10294000684600F021FD00280FD1052101A8FFF7FE
:10295000B8FF002809D005227F4901A800F0F0FC4B
:10296000264601250120039003E0601CC4B20E2C12
:10297000E0DB00BF002D51D100241AE0214668465B
:10298000FFF7F0FE09216846FFF79BFF00280ED0F5
:1029900004227349684600F0D3FC05226E4901A861
:1029A00000F0CEFC264601250120039003E0601CC8
:1029B000C4B20E2CE2DB31E000240FE02146684671
:1029C000FFF7D0FE04226649684600F0DDFC0028CF
:1029D00002D10125264603E0601CC4B20E2CEDDBBB
:1029E00000BF002D1AD1002415E021466846FFF7EC
:1029F000B9FE04216846FFF764FF002809D00422CD
:102A00005749684600F09CFC0125012003902646AA
:102A100003E0601CC4B20E2CE7DB00BF0398002863
:102A200003D031466846FFF73FFF002D0FD0FFF778
:102A3000CAFE00280BD1FFF7A2FEB04207D00E2E2F
:102A400005D03046FFF7FFFE012005B0F0BD0020A5
:102A5000FBE770B504460D46164600204449087051
:102A6000444908702A462146304601F02BFD0028D3
:102A700008D000E030BF3E4800780028FAD03D483A
:102A8000007870BD0020FCE7F0B58DB000200C9000
:102A900020200290012401F0FBFD074601F018FE02
:102AA000019001F0A5FFC82001F046FF044001207D
:102AB00001F072FF0440002001F0BCFD044001F071
:102AC0006DFD044000200B9000260EE00022012145
:102AD0000BA8FFF7BEFF0546002D03D00020FFF72F
:102AE0000EFE00E003E0701CC6B2642EEEDB00BFF9
:102AF000C820FFF79EFE01200B90002201210BA8A9
:102B0000FFF7A7FF0546002D38D01B4800780028A6
:102B100034D0002001F0C0FD002833DD20200290D9
:102B200002AA03A9002001F049FD00282AD0684626
:102B3000007B082826D1042203A90131084800F0AF
:102B4000FFFB03A80130FFF7B7FC04400020FFF7AC
:102B5000C8FE01200C9015E0AB00002081030000AE
:102B6000A7000020A6000020001000007E1000003A
:102B7000B8000020B9000020B0000020FF202D3058
:102B8000FFF757FEFF205F30FFF753FE01F030FFE5
:102B9000002001F04FFD0440002001F05BFD0440E7
:102BA000B8B201F0C9FE0440019801F0F5FE0440FE
:102BB00001F0F4FC04400C980DB0F0BD10B50446D3
:102BC00001F0DAFC00E030BF01F078FD61008842DE
:102BD000F9D310BDFFB585B016460E9F0A200290AE
:102BE0003846FFF78CFD0120049001F0CBFC00BFBC
:102BF00001F020FE0028FBD101F05CFD01901E20B9
:102C000001F0AAFE01F0CAFC3A4606990598FFF7C2
:102C100020FF0446002C24D0022004903846FFF701
:102C20006EFD072003900A20FFF7C8FF3A460121F6
:102C300003A8FFF70EFF0446002C12D0384601F01F
:102C40002BFD002808D02020029002AA31463846E9
:102C500001F0B4FC054600E00025002D01D0002065
:102C6000049001F08FFC00BF01F0E4FD0028FBD1CF
:102C7000019801F071FE01F091FC049809B0F0BDDB
:102C800010B586B0A3480078002818D10220694604
:102C90000874052104A80130FFF711FD0122062167
:102CA00004A8FFF7D6FE00285ED004A80130FFF785
:102CB000A7FC012097490870002006B010BD032032
:102CC0006946087404A80130FFF792FC0020FFF762
:102CD000A7FC032204A901310846FFF7A4FC012048
:102CE000002301AA0421009004A8FFF773FF044603
:102CF000002C39D168460079092835D1092201A96B
:102D000001310846FFF78FFC01A80130FFF763FC93
:102D1000002824D06846007A002804D0012807D073
:102D2000022817D100E016E000207A49087012E06E
:102D300002A80130FFF70EFD0D217748FFF7BFFC19
:102D40007548FFF765FC0120FFF7CBFD00207149B6
:102D5000087000E000BF00BF6846007AADE70020C1
:102D60006C4908700220A8E700206A490870032017
:102D7000A3E7F0B589B006460C46201DC7B2062071
:102D80006946087404A80130FFF732FC2246314638
:102D900005A800F0D5FA5F480078002803D000208D
:102DA000FFF73EFC02E00220FFF73AFC781EC2B2B9
:102DB00004A901310846FFF736FC0120002301AACF
:102DC0003946009004A8FFF705FF0546002D1ED1E7
:102DD000684600790B2818D1032202A9023108465F
:102DE000FFF721FC02A80230FFF7F5FB00280AD00C
:102DF00048480078002803D101A80130FFF700FC03
:102E0000012009B0F0BD0020FBE70020F9E7002019
:102E1000F7E700B589B00420694608740120002353
:102E200001AA0146009004A8FFF7D4FE002828D18B
:102E3000684600790A2824D101A80130FFF7E0FB99
:102E400005206946087404A80130FFF7D1FB0D2165
:102E500005A8FFF734FC05A8FFF7DAFB0120FFF710
:102E6000DFFB102204A901310846FFF7DCFB012239
:102E7000112104A8FFF7EDFD002802D0012009B0C0
:102E800000BD0020FBE770B505460C460D2C16DC96
:102E900021462846FFF76DFF002801D0012070BDB4
:102EA0001C480078002808D1FFF7B3FF002804D0A1
:102EB00021462846FFF75DFFF1E70020EFE70020FD
:102EC000EDE710B5044605221449204600F038FA13
:102ED00010BD37B50446082201A9114800F030FAA8
:102EE000012010490870104908703EBD37B50446EE
:102EF000082201A90A4800F023FA012009490870B4
:102F00000020094908703EBD7047704704490620FB
:102F1000085E7047A600002041080020AB0000209A
:102F2000B0000020B8000020B90000200221244A8F
:102F3000516000BF234909680029FBD020498860FF
:102F400000BF204909680029FBD000211C4A5160BC
:102F500000BF1C4909680029FBD07047F0B50A463C
:102F60008107890F05468D432B46CF00FF26BE40C3
:102F70001D68B5432C46CE001546B5402C190125D9
:102F80000F4E756000BF0F4D2D68002DFBD01C60EB
:102F900000BF0C4D2D68002DFBD00025084E75603C
:102FA000F0BDF0B505460E461746002404E0315D3D
:102FB0002819FFF7D3FF641CBC42F8D3F0BD000012
:102FC00000E5014000E40140224823490860103038
:102FD00022490860103022490860203821494860A1
:102FE0000120704770B504460D46012636061B4881
:102FF0000068854205D0102229461848006800F074
:103000009FF900201849086001201849086004E071
:10301000761E002E01D1002070BD134800680028E4
:10302000F6D00020104908600D480068844205D0A1
:1030300010220B480168204600F082F90120EBE7DE
:1030400010B50446102221460348006800F078F9C4
:1030500010BD00004E080020BC000020C000002071
:10306000C400002000E5004000E1004000E0004016
:1030700010B50446FFF732F96248007800281AD1EB
:103080006148007800280AD160480068FEF74FFECA
:103090001D2000F0AAF8092000F0A7F811E05A4816
:1030A0000078401E584908701D2000F0A3F8092040
:1030B00000F0A0F805E01D2000F09CF8092000F0C9
:1030C00099F810BD10B5524A01215048FEF7A1FDF4
:1030D00000205049086001208107086000BF4D486A
:1030E00000680028FBD000204B4948600920086197
:1030F0000020886001204949C860002046494031CD
:103100000860881545491522920189184860000217
:103110004349486040004860322042490870FF201F
:10312000414908700020414908700920012181406F
:103130003F4A116000BF62B610BD10B53348006849
:10314000FEF7F5FD1D2000F04BF8092000F048F8CF
:10315000FF20354908703220324908700120334978
:103160000870FF202C494031086001202B4908607D
:1031700010BD10B51D2000F038F801202749486027
:1031800000202A49087010BD10B504461D2000F02B
:103190002CF8092000F029F8002C03D1012019494E
:1031A000087006E06000401E1749087000201549AD
:1031B00008701E480078002801D0FFF7DAFF134896
:1031C0000068FEF7B4FD1D2000F00AF8092000F0A9
:1031D00007F8002217490D480068FEF777FD10BD7B
:1031E00001218140144A9160704701218140124AB7
:1031F000D1607047104949680122824051400E4A0F
:1032000051607047CC000020CB000020D00000208F
:103210007130000000010040009500400090004027
:1032200000930040C9000020C8000020CA00002010
:1032300000E100E09A1900000005005010B5254893
:10324000006800280FD02448406801210904084282
:1032500009D000201F4908601D20FFF7C6FF092084
:10326000FFF7C3FF35E01B484068002831D01A48FB
:1032700040680121490408422BD0002115484160D3
:1032800001201649C8601D20FFF7AAFF0920FFF79B
:10329000A7FF13480078002809D11D20FFF7A5FFDC
:1032A0000920FFF7A2FF01200C49486011E00C48FB
:1032B0000078401E0A490870084600781F2804DA82
:1032C0000848007808380749087006480078064919
:1032D000086010BD40910040009300400090004005
:1032E000C9000020C80000204095004030B50B46C2
:1032F000014600202022012409E00D46D5409D42D0
:1033000005D31D469540491B254695404019154655
:10331000521E002DF1DC30BD70B50024254600287A
:1033200001DA01244042002901DA01254942FFF770
:10333000DDFFAC4200D04042002C00D0494270BDBD
:1033400003460B439B0703D009E008C9121F08C0BE
:10335000042AFAD203E00B78491C0370401C521E69
:10336000F9D27047D2B201E00270401C491EFBD274
:1033700070470022F6E710B513460A460446194680
:10338000FFF7F0FF204610BD30B50446002003468D
:1033900000E05B1C934203D2E05CCD5C401BF8D0A4
:1033A00030BDF8B502464A40D40F42004B005208E7
:1033B0005B089A4202D20246084611464A0023D0D0
:1033C000C30D4A00DDB2120EAD1A202D35DA4902C6
:1033D0000126490AF6058A19002C00D05242202104
:1033E0004F1B1146B9402A411018C20D9A4221D0F4
:1033F000002C17D0012D08DCDA05801AD20F8019B5
:10340000D207DBB200F0D8F8F8BDDA05801A012344
:1034100040001B06C01880185A428018CA0F10437B
:10342000490007E04908C2071143DA05801A8019EC
:103430004008801800F0B8F8F8BD61000122511A68
:10344000001BF7E70122D2075140AAE70122D20769
:103450005040A6E7024670B54A40D30FDB07400054
:103460002DD04A002AD0010E140E091900021202B2
:10347000400A520A8418E50104465443000A120A1D
:103480002E045043A4194219200CC543AA18120C4B
:1034900001257F39521CAD0352191204240400D0B7
:1034A000521C104301D44000491EC2B20C06C00990
:1034B0002018401C4008802A02D003E0002070BD84
:1034C00040084000002900DA0020184370BD70B5A4
:1034D00002464A40D50F40004A00ED074008520816
:1034E000002814D0002A12D0C40DD30D41020120AF
:1034F000C0055202490A520AE41A091812187D340A
:10350000914201D3641C00E04900002C01DA002044
:1035100070BD0023914201D3891A0343400849003A
:103520000028F7D100290AD0914202D10121C90710
:1035300005E0914201D2012101E00121C943E005EA
:10354000C018401900F030F870BD10B50022962365
:10355000114600F031F810BD410040020122400A3E
:10356000D205090E80187F2901DA002070479629BC
:1035700003DC9622511AC84070479639884070473C
:103580000122D207002800DB101A002900DB511AA3
:10359000814270470122D207002800DB101A00295F
:1035A00000DB511A88427047002904DA401C4900A8
:1035B00001D140084000704770B40024050C05D1CB
:1035C0001024000402D1002922D01124050E01D1BB
:1035D00008340002050F01D1241D0001850F01D11F
:1035E000A41C8000002801DB641C4000002908D0D6
:1035F00020252E1B0D46F540A14000D00121294376
:1036000008431B1B0106DB1D000A002B02DA002009
:1036100070BC7047DB05181880180029F8DA401CC8
:103620004900F5D170BC400840007047064C0125A8
:10363000064E05E02046E36807C82B439847103440
:10364000B442F7D3FCF740FDB0610000C061000058
:1036500030B58C180278401C13071B0F01D103787A
:10366000401C120906D10278401C03E00578401C7A
:103670000D70491C5B1EF9D101E00B70491C521EF4
:10368000FBD1A142E6D3002030BD0000F7B50746CC
:10369000002401202E490004154688602D4EB07884
:1036A000002802D02C48FDF7A5FC002F02D12B48A2
:1036B000FDF7A0FC7068002802D02948FDF79AFCAD
:1036C000284677600127274D002820D0012828D0E0
:1036D000022824D02448FDF78DFC2448B77000212F
:1036E00001600199611889B229602E6820494F60F4
:1036F0006D680068002802D01E48FDF77BFCA642DA
:1037000011D3A54201D3B5421CD31B4818E0184879
:1037100047606C680760154900200860DDE7AC6809
:10372000DBE72C68D9E7B54201D2012000E0002098
:10373000AC4201D8012100E00021884202D10F48AB
:10374000FDF758FC012002490004486003B0F0BDB9
:1037500000A300400801002073000400750004006D
:103760007600040040A500408900040040A100400C
:1037700040A000409B000400B0000400C900040009
:10378000F8B55F4C20696778401C2061607D002897
:1037900002D05C48FDF72EFC204622785A4D0024CA
:1037A0005A495B4E032A3FD1CA68002A3CD0012FF8
:1037B00003D0022F2FD057489EE007460069032808
:1037C00002D05548FDF716FC02203870B969491C33
:1037D000B96152490C60C11EA960514908604B484B
:1037E000C460046004614460032179707C603C75AE
:1037F0003268117D00290AD04A498B68BB75C461C3
:10380000494B01209861494B042098608C60D06836
:1038100000283AD1F8BD0069012802D04448FDF7DC
:10382000E9FB01F045FFF8BD032F64D0012F2ED036
:10383000022FF6D042783F4B1201D218137B00279B
:10384000002B03D0CB68002B00D00127927A334B9A
:1038500002701C60032A48D00022D243AA60304B79
:1038600002221A60CC60032242700C600C614C6032
:103870004460047530680069002800D08047002F3C
:10388000D1D0306880680028CDD08047F8BD02696B
:10389000012A18D0022AF9D1CC600C610C601F49B2
:1038A0000C60111FA9600821696003210170446048
:1038B000047530680069002800D08047306880684F
:1038C0000028E2D1F8BD0C604C600021C943A9601A
:1038D000012169603168097D002902D0134A042161
:1038E00051601549C0684860F8BD0822D243AA60FB
:1038F00008226A60B9E71148FDF77CFBF8BD0000BB
:10390000EC08002090010A00001300400011004064
:1039100010010020A9010A009F010A0000120040C6
:1039200080E200E0401500400010004000F501403A
:10393000A4010A008061000000150040D6010A00C1
:10394000F8B5204D2C468034012080F31088606843
:10395000002833D020680C21484340190279310AED
:10396000090211434279FF231B02120299431A40B4
:10397000114382791B02120499431A401143C27900
:103980000E02360A11060E4381688289C08997B2F9
:10399000000407436068401E60602068401C20608F
:1039A00020680A2802D30020206000E0002080F375
:1039B00010882B683A4630469847C5E7002080F3C8
:1039C0001088F8BD1009002070B5012013490004CB
:1039D0008860134800250560124C6068002802D1F9
:1039E0001148FDF707FBA570636810480122656068
:1039F00042600F484168006895030830A94205D22B
:103A00000325AD03A84201D9627005E0814201D3CC
:103A1000012000E000206070984770BD00A30040C6
:103A200040A1004008010020EC00040040A000403C
:103A300040A5004030B47446641E2578641CAB4237
:103A400004D3635D5B00E31830BC18471D46F8E7FC
:103A500002E008C8121F08C1002AFAD170470020EE
:103A600001E001C1121F002AFBD17047F0B5554C8F
:103A70008BB060684078C00705D102F069F9002872
:103A800001D001F0CBFD504F0320387000204F4E85
:103A900020603068012803D04D48406B002817D1C2
:103AA00060680078202813D8B56804A801940090B5
:103AB000F26801232946184601F0D6FF00284DD0B0
:103AC000012821D002284DD0032811D041480DE013
:103AD000B568002500952B462A46294628460195BB
:103AE00001F0C2FF6575042802D03B48FDF782FA59
:103AF000B1683748C162206800285CD0374820612F
:103B0000042038700BB0F0BD0498002802D034486F
:103B1000FDF770FA284602F021F9002802D1314859
:103B2000FDF768FA0020034686460990786802226D
:103B3000817D00208446684602700998019068469D
:103B4000038170466A465081557091706046D0700E
:103B5000684601F02BFF01206075C9E72248FDF798
:103B600049FAC5E70498002802D12048FDF742FA37
:103B7000284602F0F3F8002802D11D48FDF73AFA72
:103B800000208446059078680223817D01208646C6
:103B9000049A6846037001926A460598108160464F
:103BA0005081557091707046D070684601F0FEFEED
:103BB000012060759CE700202061607500F01AF814
:103BC0000BB0F0BDC8080020F40000200014004035
:103BD000001500407705090080050900913C0000B0
:103BE00065050900660509006B0509006E050900F9
:103BF0006F05090070B501F011FD1C4C00251C4E2D
:103C00000120256130701B481B490069086302F0E0
:103C1000ABF800281FD002F0A7F8032802D01748FD
:103C2000FDF7E8F9022001F0F5FD002001F06CFE3F
:103C300002F09AF8032802D01148FDF7DBF930783A
:103C4000012802D00F48FDF7D5F9022030700E4848
:103C50002561E06070BD01F0E5FE0228E2D302F0CC
:103C60000FF960600028DDD10848D9E7C8080020B6
:103C7000F40000208C0800200015004022050900F7
:103C80002A050900340509006D3A00001D050900E8
:103C900010B5034905200870FFF7ACFF10BD000008
:103CA000F4000020F0B5454885B00068012803D035
:103CB0004348406B002806D14248406800782028DD
:103CC00001D8012500E000253F4C0126606900284D
:103CD00004D100F0F1FB002800D1666102F044F845
:103CE000012802D03948FDF785F939484068007D40
:103CF000002802D03748FDF77DF901F08FFC002D38
:103D000057D00121084601F079FF052840D2030071
:103D10007B441B79DB189F4402381D38380000258E
:103D200002F00AF80390A689E78902F00BF8024630
:103D3000274869464068837D0D7003990191694663
:103D40000E814F814A7000208B70C870684601F068
:103D50002DFE1DE0002501F0EFFF0390A689E78905
:103D600001F0F0FF02461A4869464068837D0D70F5
:103D70000399019169460E814F814A7001208B7031
:103D8000C870684601F012FE02E01348FDF732F9F0
:103D900000F0F0F820611148114A41696160237810
:103DA000022B01D0002906D0C0681060002000F06E
:103DB00015F905B0F0BD8068F7E700000014004079
:103DC00000150040C8080020AC080020510609007A
:103DD000F400002052060900710609008C0800203A
:103DE000E0080020F0B583B003040091C7B2010ED3
:103DF00000021B0E00160024150C4042019396B2DF
:103E0000062F72D23B007B441B79DB189F44021BB8
:103E100035561952002901D0012200E00022210A62
:103E20000902D2B211438FB2ACB200043104044390
:103E30000F43009800F062FE224639460198FFF7D2
:103E400048F803B0F0BD2B488068407E002802D1BE
:103E50002948FDF7CFF8009800F050FE200A000234
:103E6000204381B230040143220C1204A8B2024361
:103E70000198FFF73BF803B0F0BD002901D0012203
:103E800000E00022210A0902D3B219438CB20004D7
:103E90000443002A08D00098002802D11748FDF7F3
:103EA000A9F8009800F02AFE21460198FFF72DF8A6
:103EB00003B0F0BDFFF728F803B0F0BD104841682B
:103EC000491C416041780029F6D08168002903D05F
:103ED000491E816003B0F0BD00F084FF0028E9D1E5
:103EE00000F094FD03B0F0BDFFE70648FDF782F84F
:103EF00003B0F0BDD400002098030500A603050020
:103F000080080020C303050002490F220A70C86020
:103F100070470000D400002009480A4A4168491C43
:103F2000416012681368994208D300234360016816
:103F3000491C01605268914200D303607047000041
:103F400000010020FC00002070B5084D064C2968D7
:103F500020684968884202D30548FDF74BF8286875
:103F600021688068405C70BD00010020FC000020DA
:103F7000B200010001480068704700000001002005
:103F800001484068704700000001002010B504009F
:103F900002D10548FDF72EF80448002104600448CA
:103FA0000160416010BD00002A000100FC000020FB
:103FB0000001002010B50446054800684068A04292
:103FC00002D80448FDF716F80348046010BD00004D
:103FD000FC000020B90001000001002010B50446DB
:103FE000054800680068A04202D80448FDF702F8BE
:103FF0000348446010BD0000FC000020C500010023
:1040000000010020F0B583B00546102802D33548E2
:10401000FCF7F0FF28460C21484333494018019033
:1040200068002E18314830180090102D02D3304807
:10403000FCF7E0FF2D49885D002851D00098019AD7
:1040400083789B00D458801C0278521C027002783E
:10405000032A01D300220270885D401E8855002C7F
:104060003ED02448844202D12348FCF7C3FF234FAB
:104070003868062802D32248FCF7BCFF1F490020FD
:10408000096800290CD91F4A8300D358A34203D1E1
:104090001D48FCF7AFFF0EE0401CC0B28842F3D3CE
:1040A0001A4A0021222048438318A34206D0491C03
:1040B000C9B20629F6D31648FCF79CFF0F48114FEA
:1040C0000068800039580B48814202D01148FCF743
:1040D00091FF0A4801688A00BC50491C0160A4E7AE
:1040E00003B0F0BDD70003005C0A00202C0A0020BA
:1040F000A6000300ADDEADDEDB00030028010020DA
:10410000850003001C0B0020F6000300340B002088
:10411000860003008800030070B51B4C054620682C
:10412000062802D31948FCF765FF21680020184EC5
:1041300000290BD98200B258AA4203D11548FCF7D6
:1041400059FF0EE0401CC0B28842F3D31248002150
:1041500022224A431318AB4206D0491CC9B2062991
:10416000F6D30E48FCF746FF20680D498000305812
:10417000884202D00B48FCF73DFF20688100755053
:10418000401C206070BD0000280100208500030055
:104190001C0B0020F6000300340B002086000300F7
:1041A000ADDEADDE88000300014800687047000006
:1041B0002801002010B50446102802D30348FCF75C
:1041C00019FF600002492018085C10BDC8000300F8
:1041D0002C0A002070B40020114A01464300C31885
:1041E0009C186170A170D154401C1028F6D3002196
:1041F0000C4E0D4DDE2222204843431988003350D7
:1042000000201A541C18801C62702228F9D3491C03
:104210000629F0D305490620086070BC70470000ED
:104220002C0A00201C0B0020340B00202801002049
:1042300070B500250446102802D30F48FCF7DAFEBB
:1042400060000E492218885C002813D00C204443DB
:104250000B48231850188478A4001D59801C04783A
:10426000641C04700478032C01D300230370885C61
:10427000401E8854284670BDA60003002C0A00206A
:104280005C0A0020F8B50D460446102902D32048E8
:10429000FCF7B0FE1F4900200968064600290CD92A
:1042A0001D4A8300D358A34203D11C48FCF7A2FE49
:1042B0000EE0401CC0B28842F3D3194800222221EC
:1042C00051430B18A34206D0521CD2B2062AF6D391
:1042D0001448FCF78FFE6800134A2918505C032825
:1042E00014D20C20454311482B1888184578AD008E
:1042F0005C51401C0478641C04700478032C00D3C7
:104300000670505C401C50540120F8BD0020F8BDE0
:104310008F000300280100201C0B0020F600030082
:10432000340B0020900003002C0A00205C0A0020BF
:1043300010B50446102802D30948FCF75BFE600064
:1043400021180848425C002A08D00C225443064A2F
:10435000A218081880788000105810BD002010BDE9
:10436000B70003002C0A00205C0A002070B5164933
:1043700000240A68002A25D093001448144D1B1805
:10438000403BDC6B521EDD630A600021002A0BD922
:104390008B00C558A54203D10E48FCF72BFE0EE05A
:1043A000491CC9B29142F3D30B4A00212220484351
:1043B0008318A34206D0491CC9B20629F6D3074880
:1043C000FCF718FE204670BD280100201C0B0020C1
:1043D000ADDEADDEF6000300340B00207D000300EF
:1043E0000048704748A000400048704740A1004086
:1043F00001480078704700000801002010B51248FD
:10440000012444601149CC63C460114844601148E0
:104410004068002802D01048FCF7ECFD00200F494E
:10442000C04388600E49002008600E4A04211161D3
:104430000D4948600C70487088700C491015086070
:104440000B49086010BD000000A000404000004083
:1044500040A0004040A500403500040000A30040FB
:1044600040A1004000A500400801002080E200E0DB
:1044700000E100E0034901200860034900200870C2
:104480007047000000A000400801002010B4074859
:1044900001214160C16000220548064C4260427023
:1044A0008B0223608270017010BC704700A0004036
:1044B0000801002080E200E00148407870470000D9
:1044C00008010020F7B52A4D16460746082804D3F0
:1044D00004202870002003B0F0BD0198002806D009
:1044E000202E09D906202870002003B0F0BD03203B
:1044F0002870002003B0F0BD384600F023FB0328ED
:1045000004D309202870002003B0F0BD384600F025
:1045100009FB032804D30A202870002003B0F0BD53
:1045200000F0F6FA022804D208202870002003B018
:10453000F0BD00F08BFC0446067040780121084372
:1045400060703246A01C0199FEF7FAFEF8B22146CF
:1045500000F05CFC002802D0012003B0F0BD05484B
:10456000FCF748FD0F202870002003B0F0BD0000CC
:10457000D4000020DE00050001490020486070479B
:104580008008002010B500F02DFC002802D0FEF7B6
:10459000BBFC10BD00F03AFA10BD0000064881686F
:1045A000002903D1022101700020704710B500F0EE
:1045B00043FA012010BD0000D4000020F8B51646D3
:1045C0000F46044600F0AEFA184D00280CD0002F1C
:1045D0000ED0204600F036FC0078316881420BD2C4
:1045E000062028700020F8BD0B2028700020F8BDA0
:1045F000032028700020F8BD204600F0FDFB0400D9
:104600000CD0A01C0AD02278A11C38463260FEF7DC
:1046100097FE204600F072FA0120F8BD0448FCF72E
:10462000E9FC0F2028700020F8BD0000D400002015
:104630000601050010B5082804D3054904200870B8
:10464000002010BDC0B200F035FA012010BD0000FE
:10465000D400002010B50A498A68527E002A03D08F
:104660000C200870002010BD082803D30420087017
:10467000002010BDC0B200F027FA012010BD0000DC
:10468000D40000200148406870470000D40000209A
:1046900010B500F041FA10BD10B5082804D3044944
:1046A00004200870401F10BD00F03CFA10BD00004F
:1046B000D400002010B500F039FA10BD0148406860
:1046C000704700008008002010B500F035FA10BDDA
:1046D00010B5012400F03AFAF02816D006DC0028C4
:1046E00016D0042809D0EC2812D110E0F4280AD002
:1046F000F82806D0FC280BD101E0002408E00224B1
:1047000006E0032404E0042402E0052400E006247B
:10471000204610BDF8B5434C074600252570424899
:10472000E560056045608560404800F015FAA060CE
:10473000002871D0407E3E4902266268012812D0CE
:10474000102A12D8002A10D00846FEF7F9FD384882
:10475000616800F097FB01200090A068407E00286F
:1047600007D026700BE0267001E0072020700020A3
:10477000F2E7002F13D0012F13D00520207000275F
:1047800000980740042000F06BFB26490020896850
:10479000497E00290CD023482C4606700BE00120EE
:1047A00000E0022000F0D4FB1F4807700127E7E774
:1047B00000F062FB01241B493C4089680020497ECF
:1047C000002903D017482F46067002E000F046FC8F
:1047D0000127144827408068407E002803D01148F4
:1047E0002C46067003E0012000F066FB01240D4911
:1047F0003C408A680020527E002A01D00E7002E000
:1048000000F032FC01252540012000F041F9002D87
:1048100002D00120F8BDFFE7024901200870002006
:10482000F8BD0000D400002080080020E53D000015
:10483000E400002001488068407E7047D4000020DA
:1048400010B5094A93685B7E002B03D002201070DC
:10485000002010BD082803D304201070002010BDD4
:1048600000F09EFB012010BDD400002010B50649C9
:104870008A68527E002A03D002200870002010BDF2
:1048800000F07EFB012010BDD400002010B50649C9
:104890008A68527E002A03D002200870002010BDD2
:1048A00000F076FB012010BDD400002010B5114CA3
:1048B000A268527E012A11D0102913D8002911D0E4
:1048C000002813D00A46616001460B48FEF738FD08
:1048D0000948616800F0D6FA012010BD022020705E
:1048E000002010BD07202070002010BD0320207084
:1048F000002010BDD4000020E400002010B50D49B8
:1049000002468B6802205B7E002B02D008700020DC
:1049100010BD002A0AD0012A05D0022A05D00E2097
:104920000870002010BD002000E0012000F0C4FA53
:10493000012010BDD400002010B506498A68527EBF
:10494000002A03D002200870002010BD00F0FAFAFF
:10495000012010BDD400002010B506498A68527E9F
:10496000002A03D002200870002010BD00F06AFB6E
:10497000012010BDD400002010B506498A68527E7F
:10498000002A03D002200870002010BD00F060FB58
:10499000012010BDD400002010B5144902468B68D8
:1049A00000205B7E002B03D002200870002010BD89
:1049B000072A17D213007B441B79DB189F44030E90
:1049C0000507090B0D00042008E0FC2006E0F82094
:1049D00004E0F42002E0F02000E0EC2000F03EFBD8
:1049E000012010BD0E200870002010BDD400002052
:1049F00010B5FFF71FFF002807D0FFF7C3FD30BF3A
:104A000000BFFFF717FF0028FBD110BD10B5012034
:104A100080F310880748417E002906D0817800295C
:104A200003D10121817001F0DDFA002080F31088AC
:104A300010BD0000AC08002070B5104C607E00284E
:104A40001AD10F4DA868002802D10E48FCF7D2FAFF
:104A50006868002802D10C48FCF7CCFA01F0A0FAF3
:104A6000002802D00948FCF7C5FA002001F0ACFA92
:104A70000120607601F0B6FA70BD0000AC0800209D
:104A8000E0080020000209000102090008020900F4
:104A900010B5044604484068002802D10348FCF7DA
:104AA000A9FA0348047510BDF4000020960309001C
:104AB000C808002010B5012181F3108801F00CF91D
:104AC000002080F3108810BD10B50446012181F349
:104AD000108808490878002805D0487E002802D0B0
:104AE0000548FCF787FA204601F0FCF8002080F327
:104AF000108810BDAC0800209C02090010B50121EF
:104B000081F3108801F00AF9002080F3108810BDAD
:104B100010B501F007F910BD0148408B7047000047
:104B20008C08002010B501F019F910BD014840694A
:104B3000704700008C080020014840687047000062
:104B40008C08002010B501F015F910BD0148C068AF
:104B5000C0B2704700150040F8B50446012080F34C
:104B60001088894D6870032028700021A970696041
:104B7000A960A981E98129616961297683486976FB
:104B80004161824A03209060814F3846B96041609C
:104B90008048016041608160C1600161017500F081
:104BA0000FFE7D494860FFF729FC204600F042FFD8
:104BB00001F0E4F8002001F0FFF93846FFF7E6F9CC
:104BC000774A76491068FF231B04984310600868F1
:104BD0001A1290430860734801684022090A0902CA
:104BE00011430160012080F310882978012905D044
:104BF0006870687E00287DD001F0F4F9002080F311
:104C00001088694CA069072109048843012189049F
:104C10000843A061654EFF203061654801F014FA39
:104C2000E061644801F010FA20620121002000F0E8
:104C3000B7F90221012000F0B3F90321022000F0AE
:104C4000AFF90421032000F0ABF90521042000F0A6
:104C5000A7F90621052000F0A3F90721062000F09E
:104C60009FF90821072000F09BF91E2070614B205E
:104C7000C00070600220F0602A78022A02D06968C1
:104C800000297BD038600F21B160022A03D03E4A50
:104C90005268002A75D0386000207083E060606B35
:104CA000000A00026063606B022738436063424879
:104CB000E0634248A06301252561424840494162C2
:104CC000414981624149C1624149016341494163AE
:104CD000357675760020307701F0CCF869203060A9
:104CE0006069290288436061606900090001801DD4
:104CF000606100E03FE060690F21090488430321FF
:104D0000090440186061A06969068843A061A06930
:104D100049100843A061A069000A00022030A06188
:104D2000A169FF2000028143A161174C607801282E
:104D300002D02948FCF75EF925700025A570656052
:104D4000A560A581E5812561656125766576FFF71A
:104D500047FB0E49C861214888610320486020480C
:104D60000915016007608902016085F31088064813
:104D7000F8BD03E005E001F097F93FE7B16839605D
:104D800081E7396088E70000AC08002000F50140A9
:104D9000E0080020C8080020F400002000E400E043
:104DA00008E400E014E400E0001500408C08002056
:104DB00004070A0D05080B0EFFFF0000211001007B
:104DC00000500078001700404E00005402800C6034
:104DD00011646600DEC08F82DA0109000411004010
:104DE00080E200E00348407E002801D000207047A8
:104DF00001207047AC08002010B5012181F3108814
:104E000000F0F2FF002181F3108810BD10B50122DF
:104E100082F3108800F0EDFF00280DD0084881785B
:104E2000002904D1407E002801D001F0DBF80020E9
:104E300080F31088012010BD002080F3108810BD81
:104E4000AC08002010B500F0E7FF10BD10B5012040
:104E500080F3108800F0E5FF002181F3108810BD79
:104E600004498A6907231B049A43000402438A61A8
:104E700070470000001500400149087670470000A7
:104E80008C08002070B50C00054602D10748FCF7DD
:104E9000B1F8002D02D10648FCF7ACF80548856052
:104EA00044600020FFF786F870BD0000ED020900A5
:104EB000EE020900E008002030B4164C164B1749EA
:104EC000174A184D00280DD0012816D0022807D106
:104ED00020614B6214488A62C86214484D630863BB
:104EE00030BC7047002020614B6211488A62C86262
:104EF00010484D63086330BC7047012020614B624D
:104F00000D488A62C8620D4808630D48486330BC8A
:104F10007047000000150040005000780017004066
:104F20004E0000543E420F8208800C60886472007C
:104F300003800C602264720002800C6011646600C1
:104F4000DEC08F8201494883704700008C08002032
:104F500010B5012181F3108808490A78824205D0F2
:104F60004870487E002805D001F03CF8002080F30E
:104F7000108810BD01F098F8F8E70000AC08002098
:104F800010B501F061F80149C86110BD001500407D
:104F900010B501F059F80149086210BD0015004034
:104FA000F0B48207D30EFF229A40D543062204288C
:104FB000234822D2466A2E4046620025284604260F
:104FC0000C46C440E407E40F07273F1ABC402C43BB
:104FD000451C0F46EF40FD07ED0F171ABD40801C22
:104FE0002543761E3606EDB2360EE9D114489D40B3
:104FF000416A0D434562F0BC7047866A2E40866266
:105000000025284604260C46C440E407E40F072781
:105010003F1ABC402C43451C0F46EF40FD07ED0FE7
:10502000171ABD40801C2543761E3606EDB2360E9B
:10503000E9D103489D40816A0D438562F0BC704709
:105040000015004001494861704700008C080020AD
:1050500001494860704700008C0800200149C86081
:1050600070470000001500400149087770470000B4
:105070008C08002070B51248124C4068407D002812
:1050800005D0012000F040FCA089401CA081002632
:105090000D4930464E610D494A680968551A00F0BD
:1050A00093FF6069A84202D30948FBF7A3FF606938
:1050B0000122291A0748FEF7E9FA666170BD00006F
:1050C000F4000020AC08002000F501408C0800200E
:1050D00003060900855F0000F0B5FE48FE4C4069FC
:1050E000FE4EFF4F002587B0002803D1FFF7E4F9FB
:1050F000002820D0F7484168002901D0491E4160AE
:105100000178022902D04268002A7DD0F26822602C
:1051100004468078002878D0FEF7FEFE607E0028E6
:1051200074D0FFF765F9012871D0FFF7AFF9307F30
:1051300000286DD04FE2E7480078012802D002280D
:1051400005D009E000F0D8FB002805D0FAE1387856
:10515000042878D0032876D0FEF7DEFEDD484168CB
:10516000002901D0491E41600178022902D041681E
:10517000002912D0F16821600446807800280ED002
:10518000607E00286FD0FFF733F901286CD0FFF75D
:105190007DF9307F002868D08BE1B168EBE700F043
:1051A00083FF002811D00020766800F00DFF6069B1
:1051B000B04202D3CB48FBF71DFF60690122311AD0
:1051C000C948FEF763FA6561A4E1207800287AD027
:1051D000012808D0022877D0C448FBF70BFF707E67
:1051E000012872D096E100F019FA00F0BDFD002808
:1051F0002AD0708B002869D0A189814266D3012111
:10520000002000F0FBFC04E0A6E1A7E193E1E6E169
:10521000DEE1012700F090FD0590A2890492E28969
:10522000039200F08FFD69460F7005990191694660
:10523000049A0A81039A4A8148708D70CD7068463D
:1052400000F0B4FBA7E07DE100F0ECFB02287DD389
:105250002078022802D06068002807D0FEF790FE70
:10526000002834D097E055E127E11FE12069FEF7DF
:10527000A1FE0020FEF7B2FE00F026FE002865D059
:10528000A581E58100F05EFD9949C86200F05AFDF4
:10529000012181409648016300F04EFD9549086068
:1052A00000F044FD934948609348C860FEF74CFE07
:1052B0008F49886000F058FD012874D000F054FD3B
:1052C00002285ED05AE0B5E096E0BEE06CE0307EA9
:1052D000002826D000F0F8FD00285CD0A581E581EB
:1052E00000F030FD8249C86200F02CFD01218140B0
:1052F0007F48016300F020FD7E49086000F016FD44
:105300007C4948607C48C860FEF71EFE784988608A
:1053100000F02AFD012865D000F026FD02285FD0AC
:105320002CE0FEF727FE2169884234D100F0CCFD45
:10533000002830D0A581E58100F004FD6C49C862E9
:1053400000F000FD01218140694800E023E0016395
:1053500000F0F2FC6749086000F0E8FC654948602D
:105360006548C860FEF7F0FD6149886000F0FCFC0C
:10537000012837D000F0F8FC022831D05F48FBF755
:1053800039FE2DE000F046FAFFF72EF85C4908617F
:105390007868406848610120376800F015FE606950
:1053A000B84221D34DE01DE0FFF786F8002802D077
:1053B0005448FBF71FFEFEF7C7FD4D498968884238
:1053C00002D0E089401CE081FEF7BEFD48498860BC
:1053D00000F0CAFC012805D000F0C6FC0228CDD19F
:1053E0000020CFE70120CDE760690122391A3E484D
:1053F000FEF74CF96561F2E600200090FEF7A4FD8F
:105400003B498968884201D1009805E0FEF79CFD80
:1054100037498860012000903978401E084201D148
:10542000FEF7E8FB0020776800F0CEFD6069B84227
:10543000DAD306E00020776800F0C6FD6069B84264
:10544000D2D32848FBF7D6FDCEE72078022861D0DA
:10545000616800295ED100281AD0012803D02A48AB
:10546000FBF7C8FD56E000F07FFC002852D100F0A9
:1054700083FD00284ED1FEF7BBFF01284AD0FFF77D
:1054800005F8307F00280CD101208107486008E032
:10549000FEF7AEFF01283DD0FEF7F8FF307F002871
:1054A000F2D0002000F090FD656033E0012081071C
:1054B0004860002000F088FD656000F0AFF8A5703E
:1054C0006576052168460170019505814581457025
:1054D00085701BE0AC080020E00800208C0800204C
:1054E000F400002003060900855F0000FB030900AB
:1054F00000150040C8080020A53C0000D4050900A4
:1055000000F50140AD04090015040900C57000F064
:105510004DFA3D7000F086FA02280ED30326694644
:1055200000240E7001940C814C814C708D70CD70F4
:10553000684600F03BFA07B0F0BD3248FBF75AFD71
:1055400007B0F0BD7068012241082F4841612F4823
:10555000FEF79CF807B0F0BDB268D8E502290AD082
:10556000FEF7DAFC0020766800F02EFD264C60691C
:10557000B04224D320E038780428E3D00328E1D0D7
:10558000FEF7CAFC0024FEF7DFFC214FB968884211
:1055900003D0FEF7D9FCB86001241E48641E0078D1
:1055A000044201D1FEF726FB0020766800F00CFDD6
:1055B000154C6069B04202D31748FBF71BFD6069C8
:1055C0000122311A1148FEF761F8656107B0F0BD9C
:1055D000012081074860002000F0F6FC656000F0C3
:1055E0001DF8A57065760521684601700195058155
:1055F000458145708570C57000F0D8F93D7007B0E1
:10560000F0BD00002F040900AC080020855F0000F9
:1056100000150040F400002003060900F8B51C48FE
:10562000022707601B49401788601B4807601B481A
:10563000002404601A4E34611A490120086188610F
:10564000194D287801281CD002281ED003281CD010
:105650000120FAF75FFD346110482C7004600020CF
:105660000C49C04388600C480760F46003206870F0
:105670003460346174606C602C750C486C75076024
:10568000F8BD0620FAF746FDE5E70220E1E7000055
:1056900080E100E00013004080E200E000120040E2
:1056A0000011004000100040EC08002000E100E084
:1056B000F8B53348354A06690327324B0025324C8A
:1056C0001168012E05D0022E48D03148FBF792FC1C
:1056D000F8BD042606708669761C86611F602D4E13
:1056E00002233360E5602560256165602A4B08264A
:1056F0005E60097D002910D0284EB168284F817561
:105700003868400702D42748FBF774FCE561264956
:10571000012088610420B860B5602068002802D0AC
:105720002248FBF767FCE068002802D02048FBF71E
:1057300061FC20480068800702D51F48FBF75AFC2F
:10574000124C2068C068002800D080472068417D46
:105750000029BDD0194900684860F8BDE5602561A1
:10576000256065601D6000230B4A0570DB43936074
:1057700047704560057508690028EED08047F8BD80
:10578000EC08002000120040001100401001002031
:10579000E7020A0080E200E00013004040150040EC
:1057A00000F50140AD020A0000100040B6020A00F8
:1057B000B7020A0000E200E0B8020A00001500404B
:1057C00010B50D49022408600C4804600D480C49CE
:1057D00041620D490162FFF721FF00210B480322BE
:1057E0000170427041600161017541758175084821
:1057F0000460064810BD00001001002080E100E0B8
:105800001410004000F5014004110040EC08002095
:1058100000E100E0F8B505462A4900012A4C471886
:10582000207D002802D02948FBF7E4FB0026002D4C
:105830002AD0012D28D0022D26D02548FBF7DAFBEF
:105840002448FBF7D7FB002123486675C9438160D4
:10585000224902200860224865700068032D016813
:10586000A16040682661A661E0603A6862601BD270
:105870001C4B3A7A1A60FB7A1B4A002B08D0506006
:10588000506800280DD109E020780028DBD0D7E748
:1058900051605068002804D1144800E01448FBF718
:1058A000A9FB0D48797A41600D480068007D002809
:1058B00005D0022D03D10F49A675042048600120B0
:1058C0006075F8BD80610000EC080020DB000A0074
:1058D000F9020A00DD000A000013004080E200E047
:1058E00010010020001200400015004000010A00D5
:1058F00005010A0000F5014002484068012800D077
:105900000020704700110040F8B51E4C074665782E
:105910001D4928014618607D012802D01B48FBF76D
:1059200069FB207D002802D01948FBF763FB0120AA
:10593000002120756175032D0AD2002F01D1316835
:105940000860022D01D0012D05D1B07A207002E04F
:105950001048FBF74FFB10480068007D00280FD06F
:10596000022D0DD10D484068400702D40C48FBF7CA
:1059700041FB0C484068002802D10B48FBF73AFB7A
:10598000F8BD0000EC0800208061000021010A0041
:1059900022010A003A010A001001002000F501402E
:1059A00040010A000015004041010A0070B5184D81
:1059B00004462868002802D11648FBF71BFB164E48
:1059C00070680A2802D31548FBF714FBE86F0C2116
:1059D000484341192078087160784871A07888712F
:1059E000E078C87160688860208988816089C88192
:1059F0007068401C7060E86F401CE867E86F0A2818
:105A000001D30020E867012005490005086070BD4A
:105A10001009002034000B009009002035000B0015
:105A200000E200E0024840680A21081AC0B270474C
:105A30009009002010B5040002D10748FBF7DAFAFC
:105A400006490C600020C8670549086048600120CD
:105A500004490005086010BD29000B001009002052
:105A60009009002000E100E0FFB55A4885B0C06F02
:105A7000032500270F9E0C46002802D15648FBF74D
:105A8000B9FA54480078032802D05448FBF7B2FA18
:105A90005048C06F41785248CA0701901ED1807C9F
:105AA00000281BD000200090059800286FD0079890
:105AB00049070002890F000A464B09060843A20065
:105AC000D118896B00220E9B88421A6032600390C5
:105AD0005FD0404FF86F002805D101E00120E2E7D8
:105AE0004048FBF787FA3B482146C06F08310291D6
:105AF000FEF7C8FB002804D0002036490127C867FC
:105B000000E00027009838400090002F41D0029814
:105B1000810030480918039888610899384608427E
:105B200036D03148005D002832D02046FEF742FBD7
:105B3000002802D12D48FBF75DFA2046FEF778FBDE
:105B40000290002811D001982546007C002805D03D
:105B500020480069A84201D100F068F91D490020E1
:105B6000491980310870204948550E9902980860FB
:105B70000E99002909D0002802D11D48FBF73AFAF6
:105B8000002119480225015503E01A48F6E712E002
:105B90000125009800280AD02046FEF7C9FB306096
:105BA000002803D010480121015501E0124830605F
:105BB000002F01D006E00425064CE06FFEF7ACFA9A
:105BC0000020E06703490020087000F02FF9284604
:105BD00009B0F0BD9809002099010C009A010C0051
:105BE000180A0020AD020C0014010020CF010C00A7
:105BF000D4010C00D8010C00F0090020F8B52D4CA0
:105C0000064620780D46012804D0022802D02A48F2
:105C1000FBF7F0F9002E28D02078012802D0274881
:105C2000FBF7E8F9E068002802D12548FBF7E2F924
:105C3000E0680078002804D0E06F6668002805D18D
:105C400001E0002712E01F48FBF7D4F93146083184
:105C5000E06FFEF717FB002802D00020E06702E0AB
:105C60001948FBF7C7F9022700E00427002D1AD0D6
:105C700065682846FEF7DCFA06000ED01348007C63
:105C8000002804D02069A84201D100F0CFF80020FC
:105C90006119803108700E494855A068B04202D0A1
:105CA0000C48FBF7A7F90020207000F0BFF8384639
:105CB000F8BD0000980900203A010C0040010C00DA
:105CC00041010C00AD020C004C010C00180A002030
:105CD000140100205C010C0010B50830FEF792F9A9
:105CE00010BD000070B5044609480A4D007C00282C
:105CF00004D02969A14201D100F098F829190020A7
:105D00008031054A087010552046FEF77BF970BDBA
:105D1000180A0020980900201401002010B5FEF791
:105D2000FBF910BD10B5FEF73FFA10BD0148C06881
:105D30007047000098090020014880687047000003
:105D40009809002001484068704700009809002029
:105D50000148807C70470000180A002010B5083008
:105D6000FEF728FA10BD00000148007870470000D7
:105D70009809002010B5FEF71DFA10BD70B5FEF7AA
:105D800029FA0022144C154E1046010693000143D7
:105D90001B199961134605060146083329439D00E6
:105DA0002D19A961A11880310870E118803108709F
:105DB000B054521C082AE8D320706060A060E060F4
:105DC0002061074960610874064A48741076E067EC
:105DD0000120887470BD0000980900201401002083
:105DE000180A0020D809002010B50830FEF720FA64
:105DF00010BD70B50E4604460025FEF7D5F9002803
:105E000008D021463046FEF73DFA002802D000F0C7
:105E10000DF80125284670BD10B50830FEF788FA48
:105E200010BD10B5FEF7A2FA10BD0000F8B50F4C7A
:105E30002078002819D10E4E307C002815D1082575
:105E400001276069FEF7B6F9002802D0377460694F
:105E500020616069401C6061082801D100206061F8
:105E6000307C002801D16D1EEBD1F8BD98090020CF
:105E7000180A00200149887470470000180A0020A1
:105E800070B50F4D2878002802D00E48FBF7B2F805
:105E9000E86F002802D1FEF769FAE86704000CD029
:105EA000FF2020706078062108436070FF222021C7
:105EB000A01CFDF757FA03202870204670BD000093
:105EC0009809002079010C0070B5264C2078002834
